:1000AC00010204081020C0F9A4B0999282F8809043
:0B00BC008883C6A1868EFF0C897FBFE1
:10007500E4FEEF20E704C2A08002D2A0ED20E70451
:10008500C2A18002D2A1EF25E0FFED25E0FDC2A3CC
:10009500C2A20000D2A3D2A20EBE08D6C2A5C2A497
:0600A5000000D2A5D2A468
:0100AB002232
:10000300E4F508E508FD3395E0FC74B22DF5827440
:10001300003CF583E493FF74AC2DF58274003CF54A
:1000230083E493FD12007575900AE4750C98750BC3
:100033003AF50AF509E4FFFEFDFCAB0CAA0BA90A8D
:10004300A809D31200C7401A74FF250CF50CE50B61
:1000530034FFF50BE50A34FFF50AE50934FFF5092A
:1000630080D30508D3E508648094854096E4F508B9
:0200730080917A
:030000000200DD1E
:0C00DD00787FE4F6D8FD75810C0200036A
:1000C700EB9FF5F0EA9E42F0E99D42F0EC6480C8B0
:0600D70064809845F02250
:00000001FF
