:0300000002096290
:0C096200787FE4F6D8FD75810D0209A92C
:0A0A9E00C0F9A4B0999282F880908C
:0A0A930002080000010A00010B0038
:100A6F00E4FEEFFD3395E0FCEEC39DEC6480F8747B
:100A7F008098500FE4FDE4FC0CBC21FC0DBD04F686
:030A8F000E80DFF7
:010A92002241
:10080000D2AFD2A9758901D2AAD28A758C3C758AD9
:03081000AFC28CE8
:10081300E4F50CF50DD3E50A648094C64003E4F5D2
:100823000AC37464950AC36480F8E50C6480985025
:100833000CD290C291D292C293050C80E4C3E50A14
:100843006480F8E50D648098500CC290C290C29207
:10085300C293050D80E7E50A75F00A1208B5FF3368
:1008630095E0FE749E2FF582740A3EF583E493F5BA
:100873008075A0FEE50A75F00A1208B5AFF0EF33F4
:1008830095E0FE749E2FF582740A3EF583E493F59A
:100893008075A0FD2094107F0F120A6F2094050528
:0F08A3000A6380FF3094FD0509E509700205081E
:0308B20002081326
:03000B000209EEF9
:1009EE00C0E0C0F0C083C082C0D075D000C000C0CF
:1009FE0004C005C006C007E50B64147047AE08AF0F
:100A0E00097C007D641208D7749E2FF582740A3E0D
:100A1E00F583E493F58075A0FEAE08AF097C007DEA
:100A2E00641208D77E007F0ACFCDCFCECCCE12086F
:100A3E00D7749E2FF582740A3EF583E493F5807584
:100A4E00A0FD80B9050B758C3C758AAFD007D0061A
:100A5E00D005D004D000D0D0D082D083D0F0D0E05A
:010A6E003255
:03001300020AA836
:010AA800321B
:10096E00020800E493A3F8E493A34003F68001F297
:10097E0008DFF48029E493A3F85407240CC8C3338A
:10098E00C4540F4420C8834004F456800146F6DF59
:10099E00E4800B0102040810204080900A93E47E4C
:1009AE00019360BCA3FF543F30E509541FFEE4934E
:1009BE00A360010ECF54C025E060A840B8E493A315
:1009CE00FAE493A3F8E493A3C8C582C8CAC583CA40
:1009DE00F0A3C8C582C8CAC583CADFE9DEE780BEF8
:010A9D000058
:1008B500C2D530F707B2D563F0FF05F030E70CB2CB
:1008C500D5F4048463F0FF05F080018430D502F48B
:0208D5000422FB
:1008D700C2D5EC30E709B2D5E4C39DFDE49CFCEE3C
:1008E70030E715B2D5E4C39FFFE49EFE12090DC39E
:1008F700E49DFDE49CFC800312090D30D507C3E499
:060907009FFFE49EFE22AA
:10090D00BC000BBE0029EF8DF084FFADF022E4CCCE
:10091D00F875F008EF2FFFEE33FEEC33FCEE9DEC97
:10092D00984005FCEE9DFE0FD5F0E9E4CEFD22EDDD
:10093D00F8F5F0EE8420D21CFEADF075F008EF2F27
:10094D00FFED33FD4007985006D5F0F222C398FD18
:05095D000FD5F0EA22B5
:00000001FF
