:0A09EC00C0F9A4B0999282F880903F
:0609F600E4FF0FBF39FC15
:0109FC0022D8
:0A09E200C2B61209F6D2B60209F6F9
:0C09C900E4FFE4FE0EBE21FC0FBF04F6AC
:0109D50022FF
:0209B900AD0788
:0D09BB00E4FCECC39D50061209C90C80F548
:0109C800220C
:1008B2007511FFEF75F06484F9EF75F06484E5F06B
:1008C20075F00A84FBEF75F00A84AAF0EBC3940377
:1008D2004009EA94014004C2B78002D2B7AF1115B1
:1008E20011EF6037E99009EC93F58075A0FE7F0562
:1008F2001209B9EB93F58075A0FD7F051209B9EADB
:1009020093F58075A0FB7F051209B9EBC3940340F0
:0E091200CCEA940140C71209E280C275A0FF32
:0109200022B4
:10095600D200D2B30000000000C2B3E4F50A050AD3
:10096600E50AB4F0F9D2B3E4F50A050AE50AB40AD1
:10097600F9A2B39200E4F50A050AE50AB432F9A22F
:010986000070
:01098700224D
:100921007E08AD061EED602CD2B300C2B300D2B377
:10093100E4F50A050AE50AB403F9EFC313FF30B37E
:10094100054307808000E4F50AE50AC3941150D2FB
:04095100050A80F51E
:01095500227F
:100988007E08AD061EED6028D2B300C2B300EF1397
:1009980092B3EFC313FFE4F50A050AE50AB405F9B3
:1009A800D2B3E4F50AE50AC3940F50D6050A80F5D8
:0109B800221C
:1008000012095650030208B17FCC1209887F4412A6
:1008100009887FC81209B912095650030208B17F2E
:10082000CC1209887FBE1209881209218F0D120986
:10083000218F0E9009ECE493F580850DA0E50E5410
:10084000F8603C750901630DFF630EFFE50D04F5CB
:1008500008F50DD394FF4002050EE50DC4540FFFBB
:10086000E50EC454F02FF50FE50D540F75F00AA4F2
:10087000FFE5F0C4F854F0C8EFC4540F48F510E594
:100880000DC4540FFFE50EC454F02FF50FE50D54C1
:100890000F75F00AA4FFE5F0C4F854F0C8EFC45493
:1008A0000F48F510AF0F1208B27F0A1209B90208FB
:0108B0000047
:0108B1002224
:030000000209D61C
:0C09D600787FE4F6D8FD7581200208004F
:00000001FF
