:03000000020800F3
:0C080000787FE4F6D8FD75811D020847E2
:0B093500CED2B5C4B6EEB6EEB6EE00B2
:10092000021900000E0900C000EE00D200A200A3D0
:0409300000BA000009
:10088C008B1B8A1C891DE4F519F51AAB1BAA1CA934
:10089C001D851A828519831208BA6011F599051AFB
:0E08AC00E51A700205193099FDC29980DE220E
:080940008F993099FDC2992244
:05094800C298AF9922E6
:10090900758920758DE8758BE8C29FD29ED29CE4CB
:07091900F587D28EC2AC226B
:1008E7001209097BFF7A09793512088C7B007A0097
:1008F700790912088C3098F41209488F08120940B8
:0209070080F37B
:10080C000208E7E493A3F8E493A34003F68001F213
:10081C0008DFF48029E493A3F85407240CC8C333ED
:10082C00C4540F4420C8834004F456800146F6DFBC
:10083C00E4800B0102040810204080900920E47E23
:10084C00019360BCA3FF543F30E509541FFEE493B1
:10085C00A360010ECF54C025E060A840B8E493A378
:10086C00FAE493A3F8E493A3C8C582C8CAC583CAA3
:10087C00F0A3C8C582C8CAC583CADFE9DEE780BE5B
:0109340000C2
:1008BA00BB010CE58229F582E5833AF583E02250F3
:1008CA0006E92582F8E622BBFE06E92582F8E2223D
:0D08DA00E58229F582E5833AF583E4932257
:00000001FF
