:03000000020800F3
:0C080000787FE4F6D8FD758109020847F6
:0A08DC00C0F9A4B0999282F8809050
:0608E600010800010900F9
:10088C00D2AFD2A8D288758901D2ABD28E758D3CED
:10089C00758BB0E5089008DC93F58075A0FE80F3AD
:030003000208C729
:1008C700C0E0C0D00508E508D394094003750800C7
:0508D700D0D0D0E0329A
:03001B000208AC2C
:1008AC00C0E0C0D00509E509D394144009750900CE
:0B08BC00758D3C758BB0D0D0D0E032C1
:10080C0002088CE493A3F8E493A34003F68001F26E
:10081C0008DFF48029E493A3F85407240CC8C333ED
:10082C00C4540F4420C8834004F456800146F6DFBC
:10083C00E4800B01020408102040809008E6E47E5E
:10084C00019360BCA3FF543F30E509541FFEE493B1
:10085C00A360010ECF54C025E060A840B8E493A378
:10086C00FAE493A3F8E493A3C8C582C8CAC583CAA3
:10087C00F0A3C8C582C8CAC583CADFE9DEE780BE5B
:0108EC00000B
:00000001FF
