:03000000020800F3
:0C080000787FE4F6D8FD758120020847DF
:0A0AB200C0F9A4B0999282F8809078
:0A0AA7000808000000000000000035
:040A3A007F017E00BA
:0A0A3E00EF1FAC0670011E4C6012A1
:100A4800E4F513E513C394FA50EC00000000051315
:020A580080F12B
:010A5A002279
:10095100EF75F03384750C00F50DEF75F03384AF4E
:10096100F0750E008F0FAE0E7C007D0A12088C8E82
:100971000E8F0F7D3312089E8E0A8F0BAE0EAF0FB6
:100981007C007D3312089E8C0E8D0FAE0EAF0F7C56
:10099100007D0A12088C8E0E8F0F7D3312089E8EF9
:0409A100088F092290
:100A6D00D293D29200000000C29300000000C29207
:010A7D002256
:100A7E00C293D29200000000D29300000000C292F6
:010A8E002245
:050ABC00C292020A7E57
:0B0A9C00C293D29200000000C2922220
:0D0A8F00D293D29200000000C293C29222C6
:100A5B00D293D292C20100000000309302D201C2A5
:020A6B009222D5
:100A1700781A7608781AE6166018EF30E704D2934A
:100A27008002C293D29200000000C292EF25E0FF3D
:020A370080E25B
:010A3900229A
:1009F300781A7608E4FF781AE6166017D293D29233
:100A0300EF25E0FF30930543070180035307FEC240
:030A13009280E3EB
:010A160022BD
:0208F300AE074E
:1008F500E47819F6120A6D7F90120A17120A5B3016
:100905000103D20022AF06120A17120A5B30010357
:10091500D20022120A6D7F91120A17120A5B30016A
:1009250003D200221209F380177819E6C394045004
:10093500141209F37818EFF608E6062414F8A6074A
:0B094500120A9C80E4120A8F120A7E46
:010950002284
:1009A500120ABC7F041208F3300008120ABC7F0447
:1009B5001208F37814E6FF1209517D64E50D900ADB
:1009C500B293F58075A0FE120A3AE50B93F5807592
:1009D500A0FD120A3AE50993F58075A0FB120A3AC3
:0E09E500DDDA75A0FF7FC87E00120A3E80B2E8
:10080C000209A5E493A3F8E493A34003F68001F254
:10081C0008DFF48029E493A3F85407240CC8C333ED
:10082C00C4540F4420C8834004F456800146F6DFBC
:10083C00E4800B0102040810204080900AA7E47E9B
:10084C00019360BCA3FF543F30E509541FFEE493B1
:10085C00A360010ECF54C025E060A840B8E493A378
:10086C00FAE493A3F8E493A3C8C582C8CAC583CAA3
:10087C00F0A3C8C582C8CAC583CADFE9DEE780BE5B
:010AB1000044
:10088C00EF8DF0A4A8F0CF8CF0A428CE8DF0A42E80
:02089C00FE223A
:10089E00BC000BBE0029EF8DF084FFADF022E4CC3E
:1008AE00F875F008EF2FFFEE33FEEC33FCEE9DEC07
:1008BE00984005FCEE9DFE0FD5F0E9E4CEFD22ED4D
:1008CE00F8F5F0EE8420D21CFEADF075F008EF2F97
:1008DE00FFED33FD4007985006D5F0F222C398FD88
:0508EE000FD5F0EA2225
:00000001FF
