:03000000020003F8
:0C000300787FE4F6D8FD75814E02004ABB
:10029600B5C8B4697271D6D0B6CF00D6D0B6CFBACB
:1002A600F300B4EFB5BDD7EEB4F3D6D8B7A2CA0003
:0402B600C0EED2A222
:0A034100024D00000123260122DC1A
:100268008B088A09890AE4F54DF54EAB08AA09A955
:100278000A854E82854D831201316011F599054E2C
:0E028800E54E7002054D3099FDC29980DE22D0
:080355008F993099FDC2992235
:05035D00C298AF9922D7
:1002F300758920758DE8758BE8C29FD29ED29CE4E8
:07030300F587D28EC2AC2287
:09034C00C290D291C297D2932213
:10032100E4FEEEC39F500B7DFADDFE7DFADDFE0E8D
:0203310080F05A
:0103330022A7
:1002DA00E4FEEF339295EF25E0FFD297A294E43340
:0802EA004207C2970EBE08EAAC
:0102F20022E9
:0F02BA007D017F211202C97F221202C90D7F230D
:1002C900C2911202DAAC07AF051202DAD291AF0479
:0102D9002202
:0C033400C2911202DAE4FF1202DAD29148
:01034000229A
:060208008B098A0A890B34
:10020E00C2911202DAAD07E4FCECC3950C5017E470
:10021E00FF1202DAAB09AA0AA90B8C82758300EFD2
:0A022E0012015E0C80E3D291AF05CF
:0102380022A3
:0B01CE007BFF7A0279B6750F047F2AD0
:0601D9008B0C8A0D890E5B
:1001DF00C2911202DAAD07E4FCECC3950F5015ABD8
:1001EF000CAA0DA90E8C82758300120131FF120229
:0801FF00DA0C80E5D291AF0596
:0102070022D4
:10023900C2901201CE1202BAE4FD7F251202C97DD5
:10024900147F311202C97D0F7F261202C97F201245
:0F02590002C9D290AF221522EF70F975229622BA
:10008F008B088A09890AC2907BFF7A0279B6750FAD
:10009F00047F301201D91201CEAB08AA09A90A7543
:1000AF000F147FA01201D91202BA7D0A7F24120207
:1000BF00C9E4FD7F251202C97D0F7F261202C91DDB
:1000CF007F201202C9D290AF221522EF70F975224C
:0200DF00962267
:100180007BFF7A0279961202682093FD7BFF7A0248
:1001900079A11202687F071203348F203005047F93
:1001A0005480027F4612035530041130080E7BFF45
:1001B0007A0279A81202687FE11202DAAD207F2765
:0E01C0001202C9D2933005037F54227F4622DB
:10030A008523397B007A00793912008FD2081201CD
:07031A0080120355020239B5
:1000E1001202F312034C12023930980A12035D8F87
:1000F1002312030A80F37F071203348F2030061680
:100101007F261203557B007A007925750C147F61D7
:10011100120208752401AD207F271202C9E524606F
:10012100C8E4F524AF251203557F3B12035580B96E
:10000F000200E1E493A3F8E493A34003F68001F226
:10001F0008DFF48029E493A3F85407240CC8C333F2
:10002F00C4540F4420C8834004F456800146F6DFC1
:10003F00E4800B0102040810204080900341E47E0D
:10004F00019360BCA3FF543F30E509541FFEE493B6
:10005F00A360010ECF54C025E060A840B8E493A37D
:10006F00FAE493A3F8E493A3C8C582C8CAC583CAA8
:10007F00F0A3C8C582C8CAC583CADFE9DEE780BE60
:01034B0000B1
:10013100BB010CE58229F582E5833AF583E0225083
:1001410006E92582F8E622BBFE06E92582F8E222CD
:0D015100E58229F582E5833AF583E49322E7
:10015E00F8BB010DE58229F582E5833AF583E8F0D7
:10016E00225006E92582C8F622BBFE05E92582C883
:02017E00F2226B
:00000001FF
