:030000000209D220
:0C09D200787FE4F6D8FD75812002096BE7
:1009BD00C0F9A4B0999282F880908883A7A1868E01
:0509CD007FBFDFEFF722
:10080000E4FEFDC291D29300C29000D29100EF703D
:100810000EC291D29300D29100C291C293800CC2B9
:1008200091D29300D29100C291D29300D29100C292
:1008300091D293E4FF00EE25E0FED29100C2913008
:10084000920543060180000FBF08EAE4FFEDC313E1
:10085000FD309205430580800000D29100C2910FC7
:10086000BF08EAEEB505028D0F00D290D292D29168
:02087000AF0FC8
:010872002263
:1009250085120A750B0CE50F75F03384F50CE50F90
:1009350075F03384E5F075F00AA4FBAAF07C007D20
:1009450033FFAE021208D08F0D7C007D33AF03AEAE
:10095500021208D0ED75F00AA4FFAEF07C007D33DD
:060965001208D08F0E22E3
:10099E0020001B85A009E50920E703E4F512E5090F
:0F09AE0020E603751201120925E4F508D2002294
:10096B007580FF75A0FFE4F50FF511F510F5127505
:10097B008910758CF0758A5FD2AFD28CD2A93001F9
:10098B000AC201AF1212080012092520B3F0120996
:03099B009E80EB50
:03000B0002087375
:10087300C0E0C083C082C0D075D000C000758CF0CA
:10088300758A5FE5119009CD93F513F5A0E511B4D1
:10089300020E240AF8E69009BD93547FF580800C7C
:1008A300740A2511F8E69009BD93F5800511E51149
:1008B300B405037511000510E510B43205D20175B6
:0D08C3001000D000D0D0D082D083D0E03221
:1008D000BC000BBE0029EF8DF084FFADF022E4CC0C
:1008E000F875F008EF2FFFEE33FEEC33FCEE9DECD5
:1008F000984005FCEE9DFE0FD5F0E9E4CEFD22ED1B
:10090000F8F5F0EE8420D21CFEADF075F008EF2F64
:10091000FFED33FD4007985006D5F0F222C398FD55
:050920000FD5F0EA22F2
:00000001FF
