:03000000020800F3
:0C080000787FE4F6D8FD758128020847D7
:100A8B00C0F9A4B0999282F8809000FEFDFBF7EFBD
:030A9B00DFBF7F3B
:1009E10008120000000000000000080900000000DB
:1009F10000000000042500000000042100000000A8
:060A0100010800011105CF
:080A0800E493F5A07F017E00DC
:0A0A1000EF1FAC0670011E4C6012CF
:100A1A00E4F51AE51AC394FA50EC00000000051A2E
:020A2A0080F159
:010A2C0022A7
:100AB000D293D29200000000C29300000000C292C4
:010AC0002213
:100AC100C293D29200000000D29300000000C292B3
:010AD1002202
:050AF600C292020AC1DA
:0B0AEB00C293D29200000000C29222D1
:0D0AD200D293D29200000000C293C2922283
:100A9E00D293D292C20100000000309302D201C262
:020AAE00922292
:100A5100781D7608781DE6166018EF30E704D2930A
:100A61008002C293D29200000000C292EF25E0FF03
:020A710080E221
:010A73002260
:100A2D00781D7608E4FF781DE6166017D293D292F2
:100A3D00EF25E0FF30930543070180035307FEC206
:030A4D009280E3B1
:010A50002283
:02095C00AE07E4
:10095E00E4781CF6120AB07F90120A51120A9E30E9
:10096E000103D20022AF06120A51120A9E30010371
:10097E00D20022120AB07F91120A51120A9E300141
:10098E0003D20022120A2D8017781CE6C39404505D
:10099E0014120A2D781BEFF608E6062425F8A60792
:0B09AE00120AEB80E4120AD2120AC108
:0109B900221B
:100A7400E4F508120AF67F0412095C300008120A31
:070A8400F67F0412095C2259
:1009BA00EF75F06484751600F517EF75F00A847503
:1009CA00F00A84E5F0751400F515EF75F00A84AFA6
:0709DA00F07512008F1322DB
:0C0ADF00AD07120A7474252DF8E6FF2202
:10088C00758901D2AFD2A9D28C758CD8758AEFAF8D
:10089C000A1209BAE517900A8B93F580900A961202
:1008AC000A08E515900A8B93F580900A97120A08AE
:1008BC00E513900A8B93F580900A98120A08AF0CF6
:1008CC001209BAE517900A8B93F580900A9A120ACE
:1008DC0008E515900A8B93F580900A9B120A08E59F
:1008EC0013900A8B93F580900A9C120A0802089BBD
:03000B000208FCEC
:1008FC00C0E0C0D075D000C000C005C006C007E580
:10090C000864287036FF120ADFEF3395E0F5098F83
:10091C000A7F01120ADFEF3395E0F50B8F0C7F0293
:10092C00120ADFEF3395E0F50D8F0E7F03120ADF0D
:10093C00EF3395E0F50F8F107508000508758CD80E
:10094C00758AEFD007D006D005D000D0D0D0E032D9
:10080C0002088CE493A3F8E493A34003F68001F26E
:10081C0008DFF48029E493A3F85407240CC8C333ED
:10082C00C4540F4420C8834004F456800146F6DFBC
:10083C00E4800B01020408102040809009E1E47E62
:10084C00019360BCA3FF543F30E509541FFEE493B1
:10085C00A360010ECF54C025E060A840B8E493A378
:10086C00FAE493A3F8E493A3C8C582C8CAC583CAA3
:10087C00F0A3C8C582C8CAC583CADFE9DEE780BE5B
:010A070000EE
:00000001FF
